{
  "address": "0x7C28c3EDD00D2Cf41E91b3C103feB994dD3CF7dD",
  "abi": [
    {
      "inputs": [],
      "stateMutability": "nonpayable",
      "type": "constructor"
    },
    {
      "anonymous": false,
      "inputs": [
        {
          "indexed": true,
          "internalType": "address",
          "name": "previousOwner",
          "type": "address"
        },
        {
          "indexed": true,
          "internalType": "address",
          "name": "newOwner",
          "type": "address"
        }
      ],
      "name": "OwnershipTransferred",
      "type": "event"
    },
    {
      "anonymous": false,
      "inputs": [
        {
          "indexed": false,
          "internalType": "address",
          "name": "account",
          "type": "address"
        }
      ],
      "name": "Paused",
      "type": "event"
    },
    {
      "anonymous": false,
      "inputs": [
        {
          "indexed": false,
          "internalType": "address",
          "name": "account",
          "type": "address"
        }
      ],
      "name": "Unpaused",
      "type": "event"
    },
    {
      "anonymous": false,
      "inputs": [
        {
          "indexed": true,
          "internalType": "bytes32",
          "name": "id",
          "type": "bytes32"
        },
        {
          "indexed": false,
          "internalType": "address",
          "name": "tokenAddress",
          "type": "address"
        },
        {
          "indexed": false,
          "internalType": "uint256",
          "name": "tokenId",
          "type": "uint256"
        },
        {
          "indexed": false,
          "internalType": "address",
          "name": "sellerAddress",
          "type": "address"
        },
        {
          "indexed": false,
          "internalType": "uint256",
          "name": "askingPriceInDollars",
          "type": "uint256"
        }
      ],
      "name": "itemAdded",
      "type": "event"
    },
    {
      "anonymous": false,
      "inputs": [
        {
          "indexed": true,
          "internalType": "bytes32",
          "name": "id",
          "type": "bytes32"
        }
      ],
      "name": "itemRemoved",
      "type": "event"
    },
    {
      "anonymous": false,
      "inputs": [
        {
          "indexed": true,
          "internalType": "bytes32",
          "name": "id",
          "type": "bytes32"
        },
        {
          "indexed": false,
          "internalType": "address",
          "name": "tokenAddress",
          "type": "address"
        },
        {
          "indexed": false,
          "internalType": "uint256",
          "name": "tokenId",
          "type": "uint256"
        },
        {
          "indexed": false,
          "internalType": "address",
          "name": "sellerAddress",
          "type": "address"
        },
        {
          "indexed": false,
          "internalType": "uint256",
          "name": "askingPriceInDollars",
          "type": "uint256"
        },
        {
          "indexed": false,
          "internalType": "address",
          "name": "buyerAddress",
          "type": "address"
        }
      ],
      "name": "itemSold",
      "type": "event"
    },
    {
      "inputs": [],
      "name": "CWOLFContractAddress",
      "outputs": [
        {
          "internalType": "address",
          "name": "",
          "type": "address"
        }
      ],
      "stateMutability": "view",
      "type": "function"
    },
    {
      "inputs": [
        {
          "internalType": "address",
          "name": "_tokenAddress",
          "type": "address"
        },
        {
          "internalType": "uint256",
          "name": "_tokenId",
          "type": "uint256"
        },
        {
          "internalType": "uint256",
          "name": "_askingPriceInDollars",
          "type": "uint256"
        }
      ],
      "name": "addItemToMarket",
      "outputs": [
        {
          "internalType": "bytes32",
          "name": "",
          "type": "bytes32"
        }
      ],
      "stateMutability": "nonpayable",
      "type": "function"
    },
    {
      "inputs": [
        {
          "internalType": "bytes32",
          "name": "",
          "type": "bytes32"
        }
      ],
      "name": "askingPriceInDollars",
      "outputs": [
        {
          "internalType": "uint256",
          "name": "",
          "type": "uint256"
        }
      ],
      "stateMutability": "view",
      "type": "function"
    },
    {
      "inputs": [
        {
          "internalType": "bytes32",
          "name": "_id",
          "type": "bytes32"
        }
      ],
      "name": "buyItem",
      "outputs": [],
      "stateMutability": "payable",
      "type": "function"
    },
    {
      "inputs": [
        {
          "internalType": "bytes32",
          "name": "_id",
          "type": "bytes32"
        }
      ],
      "name": "calculateCommission",
      "outputs": [
        {
          "internalType": "uint256",
          "name": "",
          "type": "uint256"
        }
      ],
      "stateMutability": "view",
      "type": "function"
    },
    {
      "inputs": [
        {
          "internalType": "address",
          "name": "_newAddress",
          "type": "address"
        }
      ],
      "name": "changeCWOLFContractAddress",
      "outputs": [],
      "stateMutability": "nonpayable",
      "type": "function"
    },
    {
      "inputs": [
        {
          "internalType": "address payable",
          "name": "_newAddress",
          "type": "address"
        }
      ],
      "name": "changeCommissionWalletAddress",
      "outputs": [],
      "stateMutability": "nonpayable",
      "type": "function"
    },
    {
      "inputs": [
        {
          "internalType": "address",
          "name": "_address",
          "type": "address"
        },
        {
          "internalType": "bool",
          "name": "_allowed",
          "type": "bool"
        }
      ],
      "name": "changeNftContractAllowance",
      "outputs": [],
      "stateMutability": "nonpayable",
      "type": "function"
    },
    {
      "inputs": [
        {
          "internalType": "address",
          "name": "_newAddress",
          "type": "address"
        }
      ],
      "name": "changeRewardsPoolAddress",
      "outputs": [],
      "stateMutability": "nonpayable",
      "type": "function"
    },
    {
      "inputs": [],
      "name": "commissionWalletAddress",
      "outputs": [
        {
          "internalType": "address",
          "name": "",
          "type": "address"
        }
      ],
      "stateMutability": "view",
      "type": "function"
    },
    {
      "inputs": [
        {
          "internalType": "address",
          "name": "CWOLFContractAddress_",
          "type": "address"
        },
        {
          "internalType": "address",
          "name": "variablesContractAddress_",
          "type": "address"
        },
        {
          "internalType": "address",
          "name": "rewardsPoolAddress_",
          "type": "address"
        },
        {
          "internalType": "address",
          "name": "commissionWalletAddress_",
          "type": "address"
        }
      ],
      "name": "initialize",
      "outputs": [],
      "stateMutability": "nonpayable",
      "type": "function"
    },
    {
      "inputs": [],
      "name": "isInitialized",
      "outputs": [
        {
          "internalType": "bool",
          "name": "",
          "type": "bool"
        }
      ],
      "stateMutability": "view",
      "type": "function"
    },
    {
      "inputs": [
        {
          "internalType": "address",
          "name": "",
          "type": "address"
        }
      ],
      "name": "nftContractsAllowed",
      "outputs": [
        {
          "internalType": "bool",
          "name": "",
          "type": "bool"
        }
      ],
      "stateMutability": "view",
      "type": "function"
    },
    {
      "inputs": [],
      "name": "owner",
      "outputs": [
        {
          "internalType": "address",
          "name": "",
          "type": "address"
        }
      ],
      "stateMutability": "view",
      "type": "function"
    },
    {
      "inputs": [],
      "name": "paused",
      "outputs": [
        {
          "internalType": "bool",
          "name": "",
          "type": "bool"
        }
      ],
      "stateMutability": "view",
      "type": "function"
    },
    {
      "inputs": [
        {
          "internalType": "bytes32",
          "name": "_id",
          "type": "bytes32"
        }
      ],
      "name": "removeItem",
      "outputs": [
        {
          "internalType": "bytes32",
          "name": "",
          "type": "bytes32"
        }
      ],
      "stateMutability": "nonpayable",
      "type": "function"
    },
    {
      "inputs": [],
      "name": "renounceOwnership",
      "outputs": [],
      "stateMutability": "nonpayable",
      "type": "function"
    },
    {
      "inputs": [],
      "name": "rewardsPoolAddress",
      "outputs": [
        {
          "internalType": "address",
          "name": "",
          "type": "address"
        }
      ],
      "stateMutability": "view",
      "type": "function"
    },
    {
      "inputs": [
        {
          "internalType": "bytes32",
          "name": "",
          "type": "bytes32"
        }
      ],
      "name": "sellerAddress",
      "outputs": [
        {
          "internalType": "address",
          "name": "",
          "type": "address"
        }
      ],
      "stateMutability": "view",
      "type": "function"
    },
    {
      "inputs": [
        {
          "internalType": "bytes32",
          "name": "",
          "type": "bytes32"
        }
      ],
      "name": "tokenAddress",
      "outputs": [
        {
          "internalType": "address",
          "name": "",
          "type": "address"
        }
      ],
      "stateMutability": "view",
      "type": "function"
    },
    {
      "inputs": [
        {
          "internalType": "bytes32",
          "name": "",
          "type": "bytes32"
        }
      ],
      "name": "tokenId",
      "outputs": [
        {
          "internalType": "uint256",
          "name": "",
          "type": "uint256"
        }
      ],
      "stateMutability": "view",
      "type": "function"
    },
    {
      "inputs": [
        {
          "internalType": "address",
          "name": "newOwner",
          "type": "address"
        }
      ],
      "name": "transferOwnership",
      "outputs": [],
      "stateMutability": "nonpayable",
      "type": "function"
    },
    {
      "inputs": [],
      "name": "variablesContractAddress",
      "outputs": [
        {
          "internalType": "address",
          "name": "",
          "type": "address"
        }
      ],
      "stateMutability": "view",
      "type": "function"
    }
  ],
  "transactionHash": "0x06b7dee8894de3572eed25063e9fb7b12fc224242f04791f3905a3959492aa83",
  "args": [],
  "solcInputHash": "a6b73f4cd895c1d2f34ef33dfbe377b2",
  "bytecode": "0x608060405234801561001057600080fd5b50600054610100900460ff168061002a575060005460ff16155b6100915760405162461bcd60e51b815260206004820152602e60248201527f496e697469616c697a61626c653a20636f6e747261637420697320616c72656160448201526d191e481a5b9a5d1a585b1a5e995960921b606482015260840160405180910390fd5b600054610100900460ff161580156100b3576000805461ffff19166101011790555b80156100c5576000805461ff00191690555b506111af806100d56000396000f3fe6080604052600436106101405760003560e01c806397bb3ce9116100b6578063d895223c1161006f578063d895223c146103c8578063f169bf07146103f5578063f232172514610408578063f2fde38b14610435578063f44dcfff14610455578063f8c8765e1461047557600080fd5b806397bb3ce9146102f2578063a6bfb57814610328578063a7a6fd6714610348578063a83a216214610368578063c981612614610388578063cce85055146103a857600080fd5b8063392e53cd11610108578063392e53cd1461022d5780635c975abb14610257578063715018a61461026f5780637f1ae793146102845780638da5cb5b146102b45780639232b5c7146102d257600080fd5b8063027c41f41461014557806308bfc7001461016757806318037045146101ba5780631902f7a0146101e8578063266108c914610208575b600080fd5b34801561015157600080fd5b50610165610160366004610f5c565b610495565b005b34801561017357600080fd5b5061019d610182366004610f80565b60d0602052600090815260409020546001600160a01b031681565b6040516001600160a01b0390911681526020015b60405180910390f35b3480156101c657600080fd5b506101da6101d5366004610f80565b6104ea565b6040519081526020016101b1565b3480156101f457600080fd5b50610165610203366004610f5c565b6105e1565b34801561021457600080fd5b5060c95461019d9061010090046001600160a01b031681565b34801561023957600080fd5b5060c9546102479060ff1681565b60405190151581526020016101b1565b34801561026357600080fd5b5060335460ff16610247565b34801561027b57600080fd5b5061016561062d565b34801561029057600080fd5b5061024761029f366004610f5c565b60cd6020526000908152604090205460ff1681565b3480156102c057600080fd5b506097546001600160a01b031661019d565b3480156102de57600080fd5b506101656102ed366004610f5c565b610663565b3480156102fe57600080fd5b5061019d61030d366004610f80565b60ce602052600090815260409020546001600160a01b031681565b34801561033457600080fd5b50610165610343366004610fa7565b6106b5565b34801561035457600080fd5b506101da610363366004610f80565b61070a565b34801561037457600080fd5b506101da610383366004610fe0565b6107d1565b34801561039457600080fd5b5060cc5461019d906001600160a01b031681565b3480156103b457600080fd5b5060cb5461019d906001600160a01b031681565b3480156103d457600080fd5b506101da6103e3366004610f80565b60d16020526000908152604090205481565b610165610403366004610f80565b6108a5565b34801561041457600080fd5b506101da610423366004610f80565b60cf6020526000908152604090205481565b34801561044157600080fd5b50610165610450366004610f5c565b610c41565b34801561046157600080fd5b5060ca5461019d906001600160a01b031681565b34801561048157600080fd5b50610165610490366004611015565b610cdc565b6097546001600160a01b031633146104c85760405162461bcd60e51b81526004016104bf90611071565b60405180910390fd5b60cc80546001600160a01b0319166001600160a01b0392909216919091179055565b600081815260d060205260408120546001600160a01b03163314806105385750600082815260ce60209081526040808320546001600160a01b0316835260cd90915290205460ff1615156001145b6105725760405162461bcd60e51b815260206004820152600b60248201526a139bdd08185b1b1bddd95960aa1b60448201526064016104bf565b600082815260ce6020908152604080832080546001600160a01b031990811690915560cf835281842084905560d083528184208054909116905560d19091528082208290555183917f2067aead219f415d7847fedfee1e30feeda32bfb30ffe62f698616f79adad65d91a25090565b6097546001600160a01b0316331461060b5760405162461bcd60e51b81526004016104bf90611071565b60cb80546001600160a01b0319166001600160a01b0392909216919091179055565b6097546001600160a01b031633146106575760405162461bcd60e51b81526004016104bf90611071565b6106616000610db0565b565b6097546001600160a01b0316331461068d5760405162461bcd60e51b81526004016104bf90611071565b60c980546001600160a01b0390921661010002610100600160a81b0319909216919091179055565b6097546001600160a01b031633146106df5760405162461bcd60e51b81526004016104bf90611071565b6001600160a01b0391909116600090815260cd60205260409020805460ff1916911515919091179055565b600081815260d1602052604081205481906127109061072b906101f46110a6565b61073591906110d3565b9050600060ca60009054906101000a90046001600160a01b03166001600160a01b031663a8f70d0f6040518163ffffffff1660e01b815260040160206040518083038186803b15801561078757600080fd5b505afa15801561079b573d6000803e3d6000fd5b505050506040513d601f19601f820116820180604052508101906107bf91906110f5565b6107c990836110d3565b949350505050565b604080516001600160a01b0385166020820152908101839052600090819060600160408051808303601f190181528282528051602091820120600081815260ce835283812080546001600160a01b03199081166001600160a01b038d1690811790925560cf85528583208b905560d0855285832080543392168217905560d185529185902089905585529184018890529183015260608201859052915081907f74b4a70f768999a88289298d32572985dd51cac5bdf764435460907d397907a79060800160405180910390a2949350505050565b600081815260d060205260409020546001600160a01b03163314156109015760405162461bcd60e51b815260206004820152601260248201527153656c6c65722063616e206e6f742062757960701b60448201526064016104bf565b600081815260ce602090815260408083205460cf83528184205460d084528285205460d19094528285205460ca54935163674adb7d60e01b8152600481018290526001600160a01b0393841696929584169491939091169063674adb7d9060240160206040518083038186803b15801561097a57600080fd5b505afa15801561098e573d6000803e3d6000fd5b505050506040513d601f19601f820116820180604052508101906109b291906110f5565b60c95490915061010090046001600160a01b03166323b872dd33856127106109dc866121346110a6565b6109e691906110d3565b6040516001600160e01b031960e086901b1681526001600160a01b0393841660048201529290911660248301526044820152606401602060405180830381600087803b158015610a3557600080fd5b505af1158015610a49573d6000803e3d6000fd5b505050506040513d601f19601f82011682018060405250810190610a6d919061110e565b5060c95460cb546001600160a01b036101009092048216916323b872dd91339116612710610a9d866105dc6110a6565b610aa791906110d3565b6040516001600160e01b031960e086901b1681526001600160a01b0393841660048201529290911660248301526044820152606401602060405180830381600087803b158015610af657600080fd5b505af1158015610b0a573d6000803e3d6000fd5b505050506040513d601f19601f82011682018060405250810190610b2e919061110e565b506000610b3a8761070a565b60cc546040519192506001600160a01b03169082156108fc029083906000818181858888f19350505050158015610b75573d6000803e3d6000fd5b50604051632142170760e11b81526001600160a01b038581166004830152336024830152604482018790528716906342842e0e90606401600060405180830381600087803b158015610bc657600080fd5b505af1158015610bda573d6000803e3d6000fd5b5050604080516001600160a01b038a81168252602082018a90528816818301526060810187905233608082015290518a93507faffdfc07a93279682a356307e0d386556473842688dce220729e3e653877731492509081900360a00190a250505050505050565b6097546001600160a01b03163314610c6b5760405162461bcd60e51b81526004016104bf90611071565b6001600160a01b038116610cd05760405162461bcd60e51b815260206004820152602660248201527f4f776e61626c653a206e6577206f776e657220697320746865207a65726f206160448201526564647265737360d01b60648201526084016104bf565b610cd981610db0565b50565b600054610100900460ff1680610cf5575060005460ff16155b610d115760405162461bcd60e51b81526004016104bf9061112b565b600054610100900460ff16158015610d33576000805461ffff19166101011790555b610d3b610e02565b60c9805460ca80546001600160a01b038881166001600160a01b03199283161790925560cb805488841690831617905560cc8054878416921691909117905560ff1990881661010002166001600160a81b03199091161760011790558015610da9576000805461ff00191690555b5050505050565b609780546001600160a01b038381166001600160a01b0319831681179093556040519116919082907f8be0079c531659141344cd1fd0a4f28419497f9722a3daafe3b4186f6b6457e090600090a35050565b600054610100900460ff1680610e1b575060005460ff16155b610e375760405162461bcd60e51b81526004016104bf9061112b565b600054610100900460ff16158015610e59576000805461ffff19166101011790555b610e61610e7d565b610e69610ee7565b8015610cd9576000805461ff001916905550565b600054610100900460ff1680610e96575060005460ff16155b610eb25760405162461bcd60e51b81526004016104bf9061112b565b600054610100900460ff16158015610e69576000805461ffff19166101011790558015610cd9576000805461ff001916905550565b600054610100900460ff1680610f00575060005460ff16155b610f1c5760405162461bcd60e51b81526004016104bf9061112b565b600054610100900460ff16158015610f3e576000805461ffff19166101011790555b610e6933610db0565b6001600160a01b0381168114610cd957600080fd5b600060208284031215610f6e57600080fd5b8135610f7981610f47565b9392505050565b600060208284031215610f9257600080fd5b5035919050565b8015158114610cd957600080fd5b60008060408385031215610fba57600080fd5b8235610fc581610f47565b91506020830135610fd581610f99565b809150509250929050565b600080600060608486031215610ff557600080fd5b833561100081610f47565b95602085013595506040909401359392505050565b6000806000806080858703121561102b57600080fd5b843561103681610f47565b9350602085013561104681610f47565b9250604085013561105681610f47565b9150606085013561106681610f47565b939692955090935050565b6020808252818101527f4f776e61626c653a2063616c6c6572206973206e6f7420746865206f776e6572604082015260600190565b60008160001904831182151516156110ce57634e487b7160e01b600052601160045260246000fd5b500290565b6000826110f057634e487b7160e01b600052601260045260246000fd5b500490565b60006020828403121561110757600080fd5b5051919050565b60006020828403121561112057600080fd5b8151610f7981610f99565b6020808252602e908201527f496e697469616c697a61626c653a20636f6e747261637420697320616c72656160408201526d191e481a5b9a5d1a585b1a5e995960921b60608201526080019056fea2646970667358221220110102668cd9bdcf34f4c7cffc5690012187d34cf7cd23748018ddea505b89b564736f6c63430008090033",
  "devdoc": {
    "kind": "dev",
    "methods": {
      "owner()": {
        "details": "Returns the address of the current owner."
      },
      "paused()": {
        "details": "Returns true if the contract is paused, and false otherwise."
      },
      "renounceOwnership()": {
        "details": "Leaves the contract without owner. It will not be possible to call `onlyOwner` functions anymore. Can only be called by the current owner. NOTE: Renouncing ownership will leave the contract without an owner, thereby removing any functionality that is only available to the owner."
      },
      "transferOwnership(address)": {
        "details": "Transfers ownership of the contract to a new account (`newOwner`). Can only be called by the current owner."
      }
    },
    "version": 1
  },
  "userdoc": {
    "kind": "user",
    "methods": {},
    "version": 1
  },
  "storageLayout": {
    "storage": [
      {
        "astId": 131,
        "contract": "contracts/MarketPlace.sol:MarketPlace",
        "label": "_initialized",
        "offset": 0,
        "slot": "0",
        "type": "t_bool"
      },
      {
        "astId": 134,
        "contract": "contracts/MarketPlace.sol:MarketPlace",
        "label": "_initializing",
        "offset": 1,
        "slot": "0",
        "type": "t_bool"
      },
      {
        "astId": 3103,
        "contract": "contracts/MarketPlace.sol:MarketPlace",
        "label": "__gap",
        "offset": 0,
        "slot": "1",
        "type": "t_array(t_uint256)50_storage"
      },
      {
        "astId": 192,
        "contract": "contracts/MarketPlace.sol:MarketPlace",
        "label": "_paused",
        "offset": 0,
        "slot": "51",
        "type": "t_bool"
      },
      {
        "astId": 283,
        "contract": "contracts/MarketPlace.sol:MarketPlace",
        "label": "__gap",
        "offset": 0,
        "slot": "52",
        "type": "t_array(t_uint256)49_storage"
      },
      {
        "astId": 298,
        "contract": "contracts/MarketPlace.sol:MarketPlace",
        "label": "_status",
        "offset": 0,
        "slot": "101",
        "type": "t_uint256"
      },
      {
        "astId": 341,
        "contract": "contracts/MarketPlace.sol:MarketPlace",
        "label": "__gap",
        "offset": 0,
        "slot": "102",
        "type": "t_array(t_uint256)49_storage"
      },
      {
        "astId": 10,
        "contract": "contracts/MarketPlace.sol:MarketPlace",
        "label": "_owner",
        "offset": 0,
        "slot": "151",
        "type": "t_address"
      },
      {
        "astId": 124,
        "contract": "contracts/MarketPlace.sol:MarketPlace",
        "label": "__gap",
        "offset": 0,
        "slot": "152",
        "type": "t_array(t_uint256)49_storage"
      },
      {
        "astId": 7763,
        "contract": "contracts/MarketPlace.sol:MarketPlace",
        "label": "isInitialized",
        "offset": 0,
        "slot": "201",
        "type": "t_bool"
      },
      {
        "astId": 7765,
        "contract": "contracts/MarketPlace.sol:MarketPlace",
        "label": "CWOLFContractAddress",
        "offset": 1,
        "slot": "201",
        "type": "t_address"
      },
      {
        "astId": 7767,
        "contract": "contracts/MarketPlace.sol:MarketPlace",
        "label": "variablesContractAddress",
        "offset": 0,
        "slot": "202",
        "type": "t_address"
      },
      {
        "astId": 7769,
        "contract": "contracts/MarketPlace.sol:MarketPlace",
        "label": "rewardsPoolAddress",
        "offset": 0,
        "slot": "203",
        "type": "t_address"
      },
      {
        "astId": 7771,
        "contract": "contracts/MarketPlace.sol:MarketPlace",
        "label": "commissionWalletAddress",
        "offset": 0,
        "slot": "204",
        "type": "t_address"
      },
      {
        "astId": 7775,
        "contract": "contracts/MarketPlace.sol:MarketPlace",
        "label": "nftContractsAllowed",
        "offset": 0,
        "slot": "205",
        "type": "t_mapping(t_address,t_bool)"
      },
      {
        "astId": 7779,
        "contract": "contracts/MarketPlace.sol:MarketPlace",
        "label": "tokenAddress",
        "offset": 0,
        "slot": "206",
        "type": "t_mapping(t_bytes32,t_address)"
      },
      {
        "astId": 7783,
        "contract": "contracts/MarketPlace.sol:MarketPlace",
        "label": "tokenId",
        "offset": 0,
        "slot": "207",
        "type": "t_mapping(t_bytes32,t_uint256)"
      },
      {
        "astId": 7787,
        "contract": "contracts/MarketPlace.sol:MarketPlace",
        "label": "sellerAddress",
        "offset": 0,
        "slot": "208",
        "type": "t_mapping(t_bytes32,t_address)"
      },
      {
        "astId": 7791,
        "contract": "contracts/MarketPlace.sol:MarketPlace",
        "label": "askingPriceInDollars",
        "offset": 0,
        "slot": "209",
        "type": "t_mapping(t_bytes32,t_uint256)"
      }
    ],
    "types": {
      "t_address": {
        "encoding": "inplace",
        "label": "address",
        "numberOfBytes": "20"
      },
      "t_array(t_uint256)49_storage": {
        "base": "t_uint256",
        "encoding": "inplace",
        "label": "uint256[49]",
        "numberOfBytes": "1568"
      },
      "t_array(t_uint256)50_storage": {
        "base": "t_uint256",
        "encoding": "inplace",
        "label": "uint256[50]",
        "numberOfBytes": "1600"
      },
      "t_bool": {
        "encoding": "inplace",
        "label": "bool",
        "numberOfBytes": "1"
      },
      "t_bytes32": {
        "encoding": "inplace",
        "label": "bytes32",
        "numberOfBytes": "32"
      },
      "t_mapping(t_address,t_bool)": {
        "encoding": "mapping",
        "key": "t_address",
        "label": "mapping(address => bool)",
        "numberOfBytes": "32",
        "value": "t_bool"
      },
      "t_mapping(t_bytes32,t_address)": {
        "encoding": "mapping",
        "key": "t_bytes32",
        "label": "mapping(bytes32 => address)",
        "numberOfBytes": "32",
        "value": "t_address"
      },
      "t_mapping(t_bytes32,t_uint256)": {
        "encoding": "mapping",
        "key": "t_bytes32",
        "label": "mapping(bytes32 => uint256)",
        "numberOfBytes": "32",
        "value": "t_uint256"
      },
      "t_uint256": {
        "encoding": "inplace",
        "label": "uint256",
        "numberOfBytes": "32"
      }
    }
  }
}